{
  "abi": [
    {
      "type": "function",
      "name": "cancelEscrowArrangement",
      "inputs": [
        {
          "name": "_escrowId",
          "type": "uint256",
          "internalType": "uint256"
        }
      ],
      "outputs": [],
      "stateMutability": "payable"
    },
    {
      "type": "function",
      "name": "completeEscrowArrangement",
      "inputs": [
        {
          "name": "_escrowId",
          "type": "uint256",
          "internalType": "uint256"
        }
      ],
      "outputs": [],
      "stateMutability": "payable"
    },
    {
      "type": "function",
      "name": "createEscrowArrangement",
      "inputs": [
        {
          "name": "participant",
          "type": "address",
          "internalType": "address"
        },
        {
          "name": "tokenInAddress",
          "type": "address",
          "internalType": "address"
        },
        {
          "name": "tokenOutAddress",
          "type": "address",
          "internalType": "address"
        },
        {
          "name": "amountIn",
          "type": "uint256",
          "internalType": "uint256"
        },
        {
          "name": "amountOut",
          "type": "uint256",
          "internalType": "uint256"
        },
        {
          "name": "duration",
          "type": "uint256",
          "internalType": "uint256"
        }
      ],
      "outputs": [],
      "stateMutability": "payable"
    },
    {
      "type": "function",
      "name": "escrowId",
      "inputs": [],
      "outputs": [
        {
          "name": "",
          "type": "uint256",
          "internalType": "uint256"
        }
      ],
      "stateMutability": "view"
    },
    {
      "type": "function",
      "name": "escrowInfo",
      "inputs": [
        {
          "name": "",
          "type": "uint256",
          "internalType": "uint256"
        }
      ],
      "outputs": [
        {
          "name": "escrowId",
          "type": "uint256",
          "internalType": "uint256"
        },
        {
          "name": "initiator",
          "type": "address",
          "internalType": "address"
        },
        {
          "name": "participant",
          "type": "address",
          "internalType": "address"
        },
        {
          "name": "tokenInAddress",
          "type": "address",
          "internalType": "address"
        },
        {
          "name": "tokenOutAddress",
          "type": "address",
          "internalType": "address"
        },
        {
          "name": "amountIn",
          "type": "uint256",
          "internalType": "uint256"
        },
        {
          "name": "amountOut",
          "type": "uint256",
          "internalType": "uint256"
        },
        {
          "name": "startingTimestamp",
          "type": "uint256",
          "internalType": "uint256"
        },
        {
          "name": "duration",
          "type": "uint256",
          "internalType": "uint256"
        },
        {
          "name": "state",
          "type": "uint8",
          "internalType": "enum Escrow.EscrowState"
        }
      ],
      "stateMutability": "view"
    },
    {
      "type": "function",
      "name": "getEscrowId",
      "inputs": [],
      "outputs": [
        {
          "name": "",
          "type": "uint256",
          "internalType": "uint256"
        }
      ],
      "stateMutability": "view"
    },
    {
      "type": "function",
      "name": "getEscrowInfo",
      "inputs": [
        {
          "name": "_escrowId",
          "type": "uint256",
          "internalType": "uint256"
        }
      ],
      "outputs": [
        {
          "name": "",
          "type": "tuple",
          "internalType": "struct Escrow.EscrowDetails",
          "components": [
            {
              "name": "escrowId",
              "type": "uint256",
              "internalType": "uint256"
            },
            {
              "name": "initiator",
              "type": "address",
              "internalType": "address"
            },
            {
              "name": "participant",
              "type": "address",
              "internalType": "address"
            },
            {
              "name": "tokenInAddress",
              "type": "address",
              "internalType": "address"
            },
            {
              "name": "tokenOutAddress",
              "type": "address",
              "internalType": "address"
            },
            {
              "name": "amountIn",
              "type": "uint256",
              "internalType": "uint256"
            },
            {
              "name": "amountOut",
              "type": "uint256",
              "internalType": "uint256"
            },
            {
              "name": "startingTimestamp",
              "type": "uint256",
              "internalType": "uint256"
            },
            {
              "name": "duration",
              "type": "uint256",
              "internalType": "uint256"
            },
            {
              "name": "state",
              "type": "uint8",
              "internalType": "enum Escrow.EscrowState"
            }
          ]
        }
      ],
      "stateMutability": "view"
    },
    {
      "type": "event",
      "name": "EscrowEvent",
      "inputs": [
        {
          "name": "escrowId",
          "type": "uint256",
          "indexed": true,
          "internalType": "uint256"
        },
        {
          "name": "escrowDetails",
          "type": "tuple",
          "indexed": false,
          "internalType": "struct Escrow.EscrowDetails",
          "components": [
            {
              "name": "escrowId",
              "type": "uint256",
              "internalType": "uint256"
            },
            {
              "name": "initiator",
              "type": "address",
              "internalType": "address"
            },
            {
              "name": "participant",
              "type": "address",
              "internalType": "address"
            },
            {
              "name": "tokenInAddress",
              "type": "address",
              "internalType": "address"
            },
            {
              "name": "tokenOutAddress",
              "type": "address",
              "internalType": "address"
            },
            {
              "name": "amountIn",
              "type": "uint256",
              "internalType": "uint256"
            },
            {
              "name": "amountOut",
              "type": "uint256",
              "internalType": "uint256"
            },
            {
              "name": "startingTimestamp",
              "type": "uint256",
              "internalType": "uint256"
            },
            {
              "name": "duration",
              "type": "uint256",
              "internalType": "uint256"
            },
            {
              "name": "state",
              "type": "uint8",
              "internalType": "enum Escrow.EscrowState"
            }
          ]
        }
      ],
      "anonymous": false
    }
  ],
  "bytecode": {
    "object": "0x608060405260008055348015601357600080fd5b5061116c806100236000396000f3fe6080604052600436106100705760003560e01c80635753d9891161004e5780635753d989146100c15780636d7801b9146100d757806383560525146100ea5780638646405e1461018057600080fd5b806307e9c31a146100755780634a404cbb14610099578063507520e6146100ae575b600080fd5b34801561008157600080fd5b506000545b6040519081526020015b60405180910390f35b6100ac6100a7366004610edd565b6101ad565b005b6100ac6100bc366004610f12565b6104e0565b3480156100cd57600080fd5b5061008660005481565b6100ac6100e5366004610edd565b6107e9565b3480156100f657600080fd5b5061016a610105366004610edd565b600160208190526000918252604090912080549181015460028201546003830154600484015460058501546006860154600787015460088801546009909801546001600160a01b03978816989688169795861696959094169492939192909160ff168a565b6040516100909a99989796959493929190610fa9565b34801561018c57600080fd5b506101a061019b366004610edd565b610d89565b6040516100909190611012565b6000818152600160208190526040909120908101546001600160a01b03163314806101e4575060028101546001600160a01b031633145b6102265760405162461bcd60e51b815260206004820152600e60248201526d139bdd08185d5d1a1bdc9a5e995960921b60448201526064015b60405180910390fd5b6001600982015460ff16600381111561024157610241610f71565b146102855760405162461bcd60e51b8152602060048201526014602482015273457363726f77206973206e6f742061637469766560601b604482015260640161021d565b60038101546001820154600583015460405163a9059cbb60e01b81526001600160a01b0392831660048201526024810191909152911690819063a9059cbb906044016020604051808303816000875af11580156102e6573d6000803e3d6000fd5b505050506040513d601f19601f8201168201806040525081019061030a91906110cd565b6103465760405162461bcd60e51b815260206004820152600d60248201526c1499599d5b990819985a5b1959609a1b604482015260640161021d565b60098281018054600360ff19918216811783556000878152600160208190526040909120875481558188015481830180546001600160a01b03199081166001600160a01b03938416179091556002808b015490840180548316918416919091179055848a0154838601805483169184169190911790556004808b0154908401805490921692169190911790556005808901549082015560068089015490820155600780890154908201556008808901549082015593549484018054889660ff1694919391169190849081111561041e5761041e610f71565b02179055505060408051610140810182528454815260018501546001600160a01b03908116602083015260028601548116928201929092526003808601548316606083015260048601549092166080820152600585015460a0820152600685015460c0820152600785015460e0820152600885015461010082015260098501546104db93508692869161012084019160ff909116908111156104c2576104c2610f71565b60038111156104d3576104d3610f71565b905250610ea1565b505050565b60006040518061014001604052806000548152602001336001600160a01b03168152602001886001600160a01b03168152602001876001600160a01b03168152602001866001600160a01b031681526020018581526020018481526020014281526020018381526020016000600381111561055d5761055d610f71565b9052606081015160a0820151604051636eb1769f60e11b815233600482015230602482015292935090916001600160a01b0383169063dd62ed3e90604401602060405180830381865afa1580156105b8573d6000803e3d6000fd5b505050506040513d601f19601f820116820180604052508101906105dc91906110f6565b10156106235760405162461bcd60e51b8152602060048201526016602482015275496e73756666696369656e7420416c6c6f77616e636560501b604482015260640161021d565b60a08201516040516323b872dd60e01b815233600482015230602482015260448101919091526001600160a01b038216906323b872dd906064016020604051808303816000875af115801561067c573d6000803e3d6000fd5b505050506040513d601f19601f820116820180604052508101906106a091906110cd565b6106de5760405162461bcd60e51b815260206004820152600f60248201526e151c985b9cd9995c8819985a5b1959608a1b604482015260640161021d565b600161012083018181526000805481526020838152604091829020865181559086015181850180546001600160a01b03199081166001600160a01b0393841617909155928701516002830180548516918316919091179055606087015160038084018054861692841692909217909155608088015160048401805490951692169190911790925560a0860151600582015560c0860151600682015560e086015160078201556101008601516008820155915160098301805487959293919260ff199091169184908111156107b4576107b4610f71565b02179055509050506107c860005483610ea1565b60016000808282546107da919061110f565b90915550505050505050505050565b600081815260016020818152604080842081516101408101835281548152938101546001600160a01b039081169385019390935260028101548316918401919091526003808201548316606085015260048201549092166080840152600581015460a0840152600681015460c0840152600781015460e084015260088101546101008401526009810154909161012084019160ff169081111561088e5761088e610f71565b600381111561089f5761089f610f71565b81525050905080604001516001600160a01b0316336001600160a01b03161461091b5760405162461bcd60e51b815260206004820152602860248201527f4f6e6c79207061727469636970616e742063616e20636f6d706c6574652074686044820152676520657363726f7760c01b606482015260840161021d565b8061010001518160e00151610930919061110f565b4211156109735760405162461bcd60e51b8152602060048201526011602482015270115cd8dc9bddc81a5cc8115e1c1a5c9959607a1b604482015260640161021d565b608081015160c0820151604051636eb1769f60e11b81523360048201523060248201526001600160a01b0383169063dd62ed3e90604401602060405180830381865afa1580156109c7573d6000803e3d6000fd5b505050506040513d601f19601f820116820180604052508101906109eb91906110f6565b1015610a325760405162461bcd60e51b8152602060048201526016602482015275496e73756666696369656e7420416c6c6f77616e636560501b604482015260640161021d565b60c08201516040516323b872dd60e01b815233600482015230602482015260448101919091526001600160a01b038216906323b872dd906064016020604051808303816000875af1158015610a8b573d6000803e3d6000fd5b505050506040513d601f19601f82011682018060405250810190610aaf91906110cd565b610aed5760405162461bcd60e51b815260206004820152600f60248201526e151c985b9cd9995c8819985a5b1959608a1b604482015260640161021d565b6060820151602083015160c084015160405163a9059cbb60e01b81526001600160a01b0385169263a9059cbb92610b3a926004016001600160a01b03929092168252602082015260400190565b6020604051808303816000875af1158015610b59573d6000803e3d6000fd5b505050506040513d601f19601f82011682018060405250810190610b7d91906110cd565b610bc95760405162461bcd60e51b815260206004820152601c60248201527f5472616e73666572204661696c656420746f20496e69746961746f7200000000604482015260640161021d565b60408084015160a0850151915163a9059cbb60e01b81526001600160a01b039182166004820152602481019290925282169063a9059cbb906044016020604051808303816000875af1158015610c23573d6000803e3d6000fd5b505050506040513d601f19601f82011682018060405250810190610c4791906110cd565b610c935760405162461bcd60e51b815260206004820152601e60248201527f5472616e73666572204661696c656420746f205061727469636970616e740000604482015260640161021d565b6002610120840181905250600084815260016020818152604092839020865181559086015181830180546001600160a01b03199081166001600160a01b0393841617909155938701516002830180548616918316919091179055606087015160038084018054871692841692909217909155608088015160048401805490961692169190911790935560a0860151600582015560c0860151600682015560e086015160078201556101008601516008820155610120860151600982018054889593949293919260ff19909116918490811115610d7157610d71610f71565b0217905550905050610d838484610ea1565b50505050565b610dde6040805161014081018252600080825260208201819052918101829052606081018290526080810182905260a0810182905260c0810182905260e0810182905261010081018290529061012082015290565b60008281526001602081815260409283902083516101408101855281548152928101546001600160a01b039081169284019290925260028101548216938301939093526003808401548216606084015260048401549091166080830152600583015460a0830152600683015460c0830152600783015460e08301526008830154610100830152600983015491929161012084019160ff90911690811115610e8757610e87610f71565b6003811115610e9857610e98610f71565b90525092915050565b817f6419bc6a042b8ba2f3b7019115065dbfe394906fed9bf2c50cbbc9c03f52059482604051610ed19190611012565b60405180910390a25050565b600060208284031215610eef57600080fd5b5035919050565b80356001600160a01b0381168114610f0d57600080fd5b919050565b60008060008060008060c08789031215610f2b57600080fd5b610f3487610ef6565b9550610f4260208801610ef6565b9450610f5060408801610ef6565b9350606087013592506080870135915060a087013590509295509295509295565b634e487b7160e01b600052602160045260246000fd5b60048110610fa557634e487b7160e01b600052602160045260246000fd5b9052565b8a81526001600160a01b038a81166020830152898116604083015288811660608301528716608082015260a0810186905260c0810185905260e0810184905261010081018390526101408101611003610120830184610f87565b9b9a5050505050505050505050565b81518152602080830151610140830191611036908401826001600160a01b03169052565b50604083015161105160408401826001600160a01b03169052565b50606083015161106c60608401826001600160a01b03169052565b50608083015161108760808401826001600160a01b03169052565b5060a083015160a083015260c083015160c083015260e083015160e0830152610100808401518184015250610120808401516110c582850182610f87565b505092915050565b6000602082840312156110df57600080fd5b815180151581146110ef57600080fd5b9392505050565b60006020828403121561110857600080fd5b5051919050565b8082018082111561113057634e487b7160e01b600052601160045260246000fd5b9291505056fea26469706673582212205d7ea674f8ee6010399476effc0303723b5683911cfc70e88a34c457a4363b1464736f6c63430008190033",
    "linkReferences": {}
  },
  "methodIdentifiers": {
    "cancelEscrowArrangement(uint256)": "4a404cbb",
    "completeEscrowArrangement(uint256)": "6d7801b9",
    "createEscrowArrangement(address,address,address,uint256,uint256,uint256)": "507520e6",
    "escrowId()": "5753d989",
    "escrowInfo(uint256)": "83560525",
    "getEscrowId()": "07e9c31a",
    "getEscrowInfo(uint256)": "8646405e"
  },
  "id": 31
}